{
  "_format": "hh-sol-artifact-1",
  "contractName": "Frenzone",
  "sourceName": "contracts/Frenzone.sol",
  "abi": [
    {
      "anonymous": false,
      "inputs": [
        {
          "indexed": false,
          "internalType": "address",
          "name": "user",
          "type": "address"
        },
        {
          "indexed": false,
          "internalType": "uint256",
          "name": "id",
          "type": "uint256"
        },
        {
          "indexed": false,
          "internalType": "string",
          "name": "filehash",
          "type": "string"
        },
        {
          "indexed": false,
          "internalType": "uint256",
          "name": "time",
          "type": "uint256"
        },
        {
          "indexed": false,
          "internalType": "string",
          "name": "desc",
          "type": "string"
        }
      ],
      "name": "post",
      "type": "event"
    },
    {
      "inputs": [],
      "name": "getAllPosts",
      "outputs": [
        {
          "components": [
            {
              "internalType": "address",
              "name": "user",
              "type": "address"
            },
            {
              "internalType": "uint256",
              "name": "id",
              "type": "uint256"
            },
            {
              "internalType": "string",
              "name": "filehash",
              "type": "string"
            },
            {
              "internalType": "uint256",
              "name": "timestamp",
              "type": "uint256"
            },
            {
              "internalType": "string",
              "name": "desc",
              "type": "string"
            }
          ],
          "internalType": "struct Frenzone.Post[]",
          "name": "",
          "type": "tuple[]"
        }
      ],
      "stateMutability": "view",
      "type": "function"
    },
    {
      "inputs": [
        {
          "internalType": "string",
          "name": "_fileHash",
          "type": "string"
        },
        {
          "internalType": "string",
          "name": "_desc",
          "type": "string"
        }
      ],
      "name": "setHash",
      "outputs": [],
      "stateMutability": "nonpayable",
      "type": "function"
    },
    {
      "inputs": [],
      "name": "totalPosts",
      "outputs": [
        {
          "internalType": "uint256",
          "name": "",
          "type": "uint256"
        }
      ],
      "stateMutability": "view",
      "type": "function"
    }
  ],
  "bytecode": "0x60806040526000805534801561001457600080fd5b50610a71806100246000396000f3fe608060405234801561001057600080fd5b50600436106100415760003560e01c806330561100146100465780638e53fb4114610064578063e15fe02314610082575b600080fd5b61004e61009e565b60405161005b919061077a565b60405180910390f35b61006c61028b565b604051610079919061079c565b60405180910390f35b61009c600480360381019061009791906104f9565b610291565b005b60606001805480602002602001604051908101604052809291908181526020016000905b8282101561028257838290600052602060002090600502016040518060a00160405290816000820160009054906101000a900473ffffffffffffffffffffffffffffffffffffffff1673ffffffffffffffffffffffffffffffffffffffff1673ffffffffffffffffffffffffffffffffffffffff16815260200160018201548152602001600282018054610155906108f1565b80601f0160208091040260200160405190810160405280929190818152602001828054610181906108f1565b80156101ce5780601f106101a3576101008083540402835291602001916101ce565b820191906000526020600020905b8154815290600101906020018083116101b157829003601f168201915b50505050508152602001600382015481526020016004820180546101f1906108f1565b80601f016020809104026020016040519081016040528092919081815260200182805461021d906108f1565b801561026a5780601f1061023f5761010080835404028352916020019161026a565b820191906000526020600020905b81548152906001019060200180831161024d57829003601f168201915b505050505081525050815260200190600101906100c2565b50505050905090565b60005481565b60016040518060a001604052803373ffffffffffffffffffffffffffffffffffffffff168152602001600054815260200184815260200142815260200183815250908060018154018082558091505060019003906000526020600020906005020160009091909190915060008201518160000160006101000a81548173ffffffffffffffffffffffffffffffffffffffff021916908373ffffffffffffffffffffffffffffffffffffffff1602179055506020820151816001015560408201518160020190805190602001906103689291906103ee565b5060608201518160030155608082015181600401908051906020019061038f9291906103ee565b5050507f30817a17ba049aeffde9ff7deb24f78bc7095bf110b5c9f85d369210f88b5c84336000548442856040516103cb959493929190610719565b60405180910390a16000808154809291906103e590610954565b91905055505050565b8280546103fa906108f1565b90600052602060002090601f01602090048101928261041c5760008555610463565b82601f1061043557805160ff1916838001178555610463565b82800160010185558215610463579182015b82811115610462578251825591602001919060010190610447565b5b5090506104709190610474565b5090565b5b8082111561048d576000816000905550600101610475565b5090565b60006104a461049f846107dc565b6107b7565b9050828152602081018484840111156104bc57600080fd5b6104c78482856108af565b509392505050565b600082601f8301126104e057600080fd5b81356104f0848260208601610491565b91505092915050565b6000806040838503121561050c57600080fd5b600083013567ffffffffffffffff81111561052657600080fd5b610532858286016104cf565b925050602083013567ffffffffffffffff81111561054f57600080fd5b61055b858286016104cf565b9150509250929050565b6000610571838361067e565b905092915050565b61058281610873565b82525050565b61059181610873565b82525050565b60006105a28261081d565b6105ac8185610840565b9350836020820285016105be8561080d565b8060005b858110156105fa57848403895281516105db8582610565565b94506105e683610833565b925060208a019950506001810190506105c2565b50829750879550505050505092915050565b600061061782610828565b6106218185610851565b93506106318185602086016108be565b61063a81610a2a565b840191505092915050565b600061065082610828565b61065a8185610862565b935061066a8185602086016108be565b61067381610a2a565b840191505092915050565b600060a0830160008301516106966000860182610579565b5060208301516106a960208601826106fb565b50604083015184820360408601526106c1828261060c565b91505060608301516106d660608601826106fb565b50608083015184820360808601526106ee828261060c565b9150508091505092915050565b610704816108a5565b82525050565b610713816108a5565b82525050565b600060a08201905061072e6000830188610588565b61073b602083018761070a565b818103604083015261074d8186610645565b905061075c606083018561070a565b818103608083015261076e8184610645565b90509695505050505050565b600060208201905081810360008301526107948184610597565b905092915050565b60006020820190506107b1600083018461070a565b92915050565b60006107c16107d2565b90506107cd8282610923565b919050565b6000604051905090565b600067ffffffffffffffff8211156107f7576107f66109fb565b5b61080082610a2a565b9050602081019050919050565b6000819050602082019050919050565b600081519050919050565b600081519050919050565b6000602082019050919050565b600082825260208201905092915050565b600082825260208201905092915050565b600082825260208201905092915050565b600061087e82610885565b9050919050565b600073ffffffffffffffffffffffffffffffffffffffff82169050919050565b6000819050919050565b82818337600083830152505050565b60005b838110156108dc5780820151818401526020810190506108c1565b838111156108eb576000848401525b50505050565b6000600282049050600182168061090957607f821691505b6020821081141561091d5761091c6109cc565b5b50919050565b61092c82610a2a565b810181811067ffffffffffffffff8211171561094b5761094a6109fb565b5b80604052505050565b600061095f826108a5565b91507fffffffffffffffffffffffffffffffffffffffffffffffffffffffffffffffff8214156109925761099161099d565b5b600182019050919050565b7f4e487b7100000000000000000000000000000000000000000000000000000000600052601160045260246000fd5b7f4e487b7100000000000000000000000000000000000000000000000000000000600052602260045260246000fd5b7f4e487b7100000000000000000000000000000000000000000000000000000000600052604160045260246000fd5b6000601f19601f830116905091905056fea2646970667358221220c62051fb474dda5609d65a96f17126edfcc0c51f6e3c1d94694c53620e2834c964736f6c63430008040033",
  "linkReferences": {},
  "deployedLinkReferences": {}
}